:020000040800F2
:10400000F0FE0020454100084D4100084F410008E6
:1040100051410008534100085541000800000000CC
:1040200000000000000000000000000057410008F0
:1040300059410008000000005B4100085D41000894
:104040005F4100085F4100085F4100085F410008D0
:104050005F4100085F410008BD4E00085F41000855
:104060005F4100085F4100085F410008794B00088C
:104070005F4100085F4100085F4100085F410008A0
:104080005F4100085F4100085F4100085F41000890
:104090005F4100085F4100085F410008615100086E
:1040A0005F4100085F4100085F4100085F41000870
:1040B000757F0008957F00085F4100085F41000898
:1040C0005F4100085F4100085F4100085F41000850
:1040D0005F4100085F4100085F4100085F41000840
:1040E000195000085F4100085F4100085F41000867
:1040F0005F4100085F4100085F4100085F41000820
:104100005F4100085F4100085F4100085F4100080F
:104110005F4100085F4100085F4100085F410008FF
:104120005F4100085F4100085F4100085F410008EF
:10413000DFF80CD000F05EF9004800473D91000820
:10414000F0FE00200A4880470A48004708E007E0E0
:1041500006E005E004E003E002E001E000E000BF6B
:104160004FF0010080F31388034804490160FEE723
:10417000157F0008314100080CED00E00400FA054D
:1041800040EA01039B0703D009E008C9121F08C0D9
:10419000042AFAD203E011F8013B00F8013B521E59
:1041A000F9D27047D2B201E000F8012B491EFBD2D0
:1041B00070470022F6E710B513460A460446194632
:1041C000FFF7F0FF204610BD2DE9FE4F81EA030402
:1041D00004F0004421F0004100944FF0000B23F064
:1041E000004350EA01045ED052EA03045BD0C3F3FB
:1041F0000A54C1F30A552C44A4F2F3340194A0FBF1
:104200000254C1F3130141F48011C3F3130343F4C7
:10421000801301FB024400FB034E840A970A44EA20
:10422000815447EA8357A4FB076802958D0A05FB72
:1042300007854FEA932C04FB0C542705029D4FEA97
:10424000065847EA1637B5EB08056EEB070C870EE4
:10425000920E47EA811742EA8312A7FB0201B6EBEE
:104260000B0164EB00042B0D43EA0C335E1844EBA6
:104270001C50DA465146E7FB0201C5F313044FEA2E
:104280000B3343EA14534FEA0432019C43EA06031A
:10429000A4F10C040294009CCDE900B400F05CF899
:1042A00003B0BDE8F08F00200146F9E70EB5C10F5D
:1042B00080EAE0700844CA07002140F233438DE8E9
:1042C0000E000A460B4600F047F803B000BDC1F3EC
:1042D0000A5210B5C1F3130140F2FF3341F48011CB
:1042E0009A4201DA002010BD40F233439A42A2F212
:1042F000334203DC524200F012F810BD904010BD72
:10430000202A04DB203A00FA02F100207047914095
:10431000C2F1200320FA03F3194390407047202A8A
:1043200004DB203A21FA02F00021704721FA02F35F
:10433000D040C2F12002914008431946704710B5A1
:10434000002B08DA401C41F1000192185B411A432E
:1043500001D120F0010010BD2DE9F04D92469B46A1
:1043600011B1B1FA81F202E0B0FA80F22032904647
:10437000FFF7C6FF04460F4640EA0A0041EA0B0178
:1043800053465A46084313D0114653EA010019D048
:10439000C8F140025046FFF7C2FF05460E465046A0
:1043A00059464246FFF7ACFF084305D0012004E020
:1043B00020463946BDE8F08D0020054346EAE07608
:1043C0002C4337430A986305E40AA0EB0800002257
:1043D000FD0A44EA47540A3002D500200146E9E7C5
:1043E000010510196941DDE9084500196941BDE879
:1043F000F04DA4E7064C074D06E0E06840F00103ED
:1044000094E8070098471034AC42F6D3FFF794FEC7
:10441000ECAA00080CAB000870B58C1810F8015B12
:1044200015F0070301D110F8013B2A1106D110F84D
:10443000012B03E010F8016B01F8016B5B1EF9D151
:104440002B0705D40023521E0DD401F8013BFAE7D7
:1044500010F8013BCB1A921C03E013F8015B01F842
:10446000015B521EF9D5A142D8D3002070BD0000D7
:1044700000B585B00121480203F06CF84FF44040CC
:1044800003F02CF8244800F05FF800200090012091
:104490008DF804008DF805004FF460200290002094
:1044A000039004208DF8100069461B4800F092F834
:1044B000072301220B21184800F0B4F80723022239
:1044C0000A21154800F0AEF8072303220C211248F8
:1044D00000F0A8F8072304220D210F4800F0A2F8ED
:1044E00001210D4800F025F801210B4800F016F8D5
:1044F000094800F0F3F800BF074800F061F8002811
:10450000FAD1054800F0FAF800BF034800F04AF875
:104510000028FAD105B000BD0024014021B1826815
:1045200042F00102826003E0826822F001028260B0
:10453000704721B1826842F48072826003E0826831
:1045400022F480728260704710B50446124884429B
:1045500008D10121401503F00DF80021601503F08A
:1045600009F817E00D48844208D10121001503F035
:1045700001F80021201502F0FDFF0BE008488442FD
:1045800008D10121C80302F0F5FF00214FF40040DB
:1045900002F0F0FF10BD000000240140002801409F
:1045A000003C0140014600208A6802F004020AB182
:1045B000012000E0002070470146C86C80B27047BF
:1045C000014600208A6802F008020AB1012000E0DA
:1045D0000020704730B502460020002350680F4C81
:1045E00020400D790C6844EA05242043506090680F
:1045F0000B4C2040D1E902542C434D7944EA450448
:1046000020439060D06A20F470000C7C641EE4B2F9
:10461000234340EA0350D06230BD0000FFFEF0FFAC
:10462000FDF7F1FFF0B504460D4600200021092DED
:1046300011DDE068A5F10A0606EB4607072606FA33
:1046400007F18843A5F10A0606EB460603FA06F1D0
:104650000843E0600CE0206905EB4507072606FAF1
:1046600007F1884305EB450603FA06F1084320618C
:10467000072A0FDA606B561E06EB86071F2606FA1E
:1046800007F18843561E06EB860605FA06F1084335
:10469000606322E00D2A0FDA206BD61F06EB860737
:1046A0001F2606FA07F18843D61F06EB860605FA91
:1046B00006F10843206310E0E06AA2F10D0606EB64
:1046C00086071F2606FA07F18843A2F10D0606EBBE
:1046D000860605FA06F10843E062F0BD816841F004
:1046E00008018160704721B1826842F4A0028260B3
:1046F00003E0826822F4A00282607047816841F082
:104700000401816070470000F0B504460D460021A9
:1047100000BF1CE0082606FB031000EB40060E4F0E
:1047200037F816604FF6FF77BE420FD100EB400618
:10473000094F27F8164000EB400607EB4606758048
:1047400000EB400607EB4606B28002E0491C082950
:10475000E0DB00BFF0BD00005043002010B5024870
:10476000FFF72AFF10BD00000028014010B504210A
:10477000034801F011FE08B9012010BD0020FCE73C
:104780000008014010B50421034801F005FE08B9F6
:10479000012010BD0020FCE7000C014000B587B0EF
:1047A000012140F20C4002F0D5FE0420ADF81800C3
:1047B00048208DF81B0003208DF81A0006A92B480D
:1047C00001F016FD0420ADF8180048208DF81B00FC
:1047D00003208DF81A0006A9254801F009FD0220E2
:1047E000ADF8180000208DF81B0003208DF81A008A
:1047F00006A91E4801F0FCFC002001908DF808007D
:1048000001208DF809004FF46020039000200490EF
:1048100001208DF8140001A91648FFF7DBFE4FF4C4
:10482000004002F05BFE0023012211461148FFF711
:10483000F9FE01210F48FFF771FE0E48FFF74EFF0A
:1048400000BF0C48FFF7BCFE0028FAD10948FFF76B
:1048500055FF00BF0748FFF7A5FE0028FAD1012148
:104860000448FFF740FF07B000BD0000000801400A
:10487000000C01400028014010B50B4800780128C9
:1048800005D100F023F809490860002010BD074851
:10489000006800F021F8B0F57A7F01D20020F5E73A
:1048A00000F006F8F2E700000D00002028110020BB
:1048B00070B5FFF75BFF0446FFF764FF0546012C68
:1048C00002D10DB9012070BD0020FCE7014800684D
:1048D0007047000050110020014602480068081A85
:1048E0007047000050110020002001490860704707
:1048F0005011002010B500F00AF862B64FF4806045
:1049000002F0A4FBFFF7F0FF00F036F810BD10B581
:1049100002F040FE4FF4803002F094FE02F0F0FE10
:104920000446012C25D1102000F0EEFC022000F0FE
:10493000F9FC002002F07AFE002002F0B5FEA00291
:1049400002F0A6FE4FF4E011200402F0BFFE0120A9
:1049500002F0B6FE00BF392002F042FE0028FAD075
:10496000022002F0C1FE00BF02F058FE0828FBD171
:1049700001E000BFFEE710BD1FB51C208DF80C0044
:1049800001208DF80D0000208DF80E0001208DF81B
:104990000F0003A802F022FB0121084602F0BAFD35
:1049A0004720ADF8040040F2E730ADF800000020E9
:1049B000ADF80600ADF8020069464FF0804003F004
:1049C00093FC0121880703F06FFB01221146900739
:1049D00003F081FC0121880703F06CFB1FBD000080
:1049E00002480068401E01490860704750110020CD
:1049F00010B502460B46002100BF04E052F821002A
:104A0000034C2060491C9942F8D30148006810BD4E
:104A1000003002400148006870470000003002404A
:104A200010B501F0EDFF00F00BF84FF40041080362
:104A3000FFF7DEFF044601F0E3FF204610BD000053
:104A400001200149886070470030024070B5C0B055
:104A50004FF48034E601FFF7F3FF00250EE04FF43A
:104A600080726946204600F0FBFE40216846FFF751
:104A7000BFFF04F5807401F0C3FF6D1CB5F5004F56
:104A8000EDDBFFF7C7FF40B070BD000000B50A487E
:104A90000168FFF71BFF0246881A084B984201D3B2
:104AA000012000BD881A42F21073984201D30220FF
:104AB000F7E70020F5E700005411002020BF0200B6
:104AC00030B5014600200AE0082303FB01024FF63F
:104AD000FF7302EB4204034D25F81430401C0828F4
:104AE000F2DB30BD5043002000B54FF6FF7000F000
:104AF000C7FF00BD03480068034908600020034960
:104B000008607047501100205411002058110020F7
:104B100010B5044601200A490871142048714FF667
:104B2000FF70C880084604604FF6FF7000F0A8FFD1
:104B300022460021084602F0BAFC02F0ADFE10BD8C
:104B40003810002029B1064A52680243044B5A60CB
:104B500004E0034A52688243014B5A6070470000E8
:104B6000002004E04101034A1160C1434901121DC4
:104B7000116070471008014010B5022000F01AF9CA
:104B800090B100210948FFF7AEFD012000F012F8B6
:104B90000020074981F85809084690F85609401C3A
:104BA00081F8560904F022F810BD000000240140ED
:104BB00074C9002000F0805111B10349086001E080
:104BC00002494860704700000404024000000240AF
:104BD00021B1026842F00102026004E002684FF66F
:104BE000FE731A400260704710B58CB00446012174
:104BF000084602F07FFC1A4800F036F81948019088
:104C00000294002003904FF413700490002005904C
:104C100080200690400007908000089000200990B6
:104C20004FF400500A9000200B9001A90C4800F0AE
:104C3000E0F8012202210A4800F0D2F80B208DF89A
:104C4000000004208DF8010000208DF802000120F2
:104C50008DF80300684602F0C1F90CB010BD0000E9
:104C6000080002404C24014001684FF6FE721140DA
:104C700001600021016041608160C1604B49884250
:104C800008D14A490839496841F00F01474A083AB2
:104C900051608AE045491431884208D143490839B6
:104CA000496841F0F001414A083A51607DE03F49CE
:104CB0002831884208D13D490839496841F470617A
:104CC0003A4A083A516070E038493C31884208D18C
:104CD00036490839496841F47041344A083A51600C
:104CE00063E032495031884208D130490839496877
:104CF00041F470212D4A083A516056E02B49643145
:104D0000884208D129490839496841F47001274A85
:104D1000083A516049E025497831884208D1234951
:104D20000839496841F07061204A083A51603CE016
:104D30001F49884206D1011F096841F00F01021F77
:104D4000116032E01A491431884208D11849091F0C
:104D5000096841F0F001164A121F116025E014495C
:104D60002831884208D11249091F096841F470614D
:104D70000F4A121F116018E00D493C31884208D1DA
:104D80000B49091F096841F47041094A121F11605B
:104D90000BE007495031884207D10549091F0968CE
:104DA00041F47021024A121F11607047080002404E
:104DB0000804024001460020002201F0805313B194
:104DC000054B1A6801E0054B1A6802EA01030BB1B2
:104DD000012000E000207047000402400000024073
:104DE0001AB103680B43036002E003688B4303605E
:104DF000704710B50022026847F6F0739A430C6AB8
:104E00008B6823430C6923434C6923438C692343F8
:104E1000CC6923434C6A23438C6A23431A430260C0
:104E2000CB6843600B6883604B68C36010BD0A2089
:104E300000BF0100A0F1010290B2FAD1704700005A
:104E400010B50848007800F001000649086038B144
:104E500002F0F4FC0348006820F0010001490860FA
:104E600010BD00003410002010B51148007800B1CA
:104E700010BD01200E49087001F042FE0D48006887
:104E8000B0F1406F03D1FFF72FFE02F005FD01F0F6
:104E90001BFF002407E04FF6FF7004EB4401064AB5
:104EA00022F81100641C402CF5DB00BFE0E7000095
:104EB00031100020000000205043002038B50120B0
:104EC00000F07EF9002515E003226946002002F07B
:104ED00090FC9DF8000000F0400050B99DF80100E2
:104EE00000F0400028B99DF8020000F0400000B931
:104EF00002E06D1C052DE7DB00BF9DF8000000F00F
:104F00001F003C4908709DF8000000F0200020B10F
:104F100008460078203840B208709DF8010000F083
:104F20001F00354908709DF8010000F0200020B1F5
:104F300008460078203840B208709DF8020000F062
:104F40001F002E4908709DF8020000F0200020B1DB
:104F500008460078203840B20870012028490870BF
:104F600028480068401C27490860084600681E2839
:104F700001DB002008601F4890F900002249214A07
:104F8000126888541C4890F9000020491D4A126894
:104F900088541A4890F900001D491A4A126888542A
:104FA0001848006808B91E2401E016480468641E09
:104FB00015481449096840561349095748430028C1
:104FC00011DB12480F4909684056104909574843F8
:104FD000002808DB0E480B49096840560C49095760
:104FE0004843002804DA0B480068401C094908605F
:104FF00038BD00006C1000206D1000206E100020E5
:105000006F1000207010002094C80020B2C800204B
:10501000D0C800201C11002010B54FF4004000F053
:10502000D5F800287ED0FFF751FC44490968081ADA
:1050300043490860414800680968401A3F490860D0
:105040003F480068072806D300203E490870012029
:105050003D4908706CE03A480068032863D33A4839
:105060000078C01E062816D2DFE800F00304150BF6
:105070000C0D00BF354800784006000E334908701B
:1050800013E000BF00BF31480078012101EB400070
:105090002E49087009E000202B4908702949087042
:1050A0004FF4004000F08CF810BD00BF2548007898
:1050B000401C24490870012005F0D0F824480078ED
:1050C00000F0800028B14FF40041224801F06FF950
:1050D00004E04FF400411F4801F067F91C480078D4
:1050E0004006000E1A4908705A2005F005FC002001
:1050F00005F0B4F800201449087012480078082818
:1051000016D112480178144803F046FC10491348A0
:1051100003F014FC10B900200D4908700020094963
:10512000087005E008E008480078401C064908704F
:105130004FF4004000F044F800BFB5E744110020F0
:10514000481100204D1100204C1100204111002079
:10515000401100200008014038C900204CC900203F
:1051600010B5402000F032F818B30820114908604B
:1051700004F0CAF8044604F0400040280CD104F0C2
:105180000E0028B9012003F0CDFF04F0C9F810E0AB
:10519000204604F0BBF90CE004F0300010B102F03E
:1051A0008FFB06E00448006804490860402000F0D6
:1051B00007F810BD140801405411002058110020B8
:1051C00001490860704700001404014001460020B6
:1051D0000022074B1B6803EA0102054B14331B68CE
:1051E0000B4013B10AB1012000E00020704700001D
:1051F00000040140002123498279002A3AD00A465E
:10520000126803689A430B461A600A1D1268036805
:105210009A430B1D1A60027911440A6803681A4305
:105220000A60184A0832126803689A43154B08331B
:105230001A601A1D126803689A43124B0C331A60E5
:105240004279102A0ED11A1F126803681A430D4BB7
:1052500008331A601A1D126803681A43094B0C338D
:105260001A600DE00749427911440A6803681A433D
:105270000A6005E0027911440A6803689A430A60EB
:10528000704700000004014010B502460C4610882B
:105290005188884201D1012314E0508891888842C6
:1052A00004DB104600F02CF801230BE0907820700E
:1052B0005088401C508050889188884201DB002033
:1052C00050800023184610BD10B502460B461188C9
:1052D0004C1CA1B294888C4200DC002114781C7014
:1052E00054888C4201D1012001E01180002010BDC2
:1052F00000B502460B46104600F002F8938000BD50
:1053000000210180418070470549096821F01001A2
:10531000034A11601146096801431160704700009B
:105320000020024001460020034A106800F03800C7
:1053300008431060704700000020024008B54FF499
:105340007070ADF8000003208DF8020048208DF841
:1053500003006946014800F04BFF08BD000C014006
:1053600008B54FF47070ADF8000003208DF802000E
:1053700010208DF803006946014800F039FF08BD90
:10538000000C014070B500F057F9352000F036F9F7
:1053900000F018F9044600F059F944F0020400F056
:1053A0004BF9062000F02AF900F050F900F044F91A
:1053B000312000F023F9204600F020F900F046F9F2
:1053C00000F03AF9052000F019F900F0FBF8054665
:1053D00002E000F0F7F8054605F001000028F8D1DA
:1053E00000F034F900F028F9382000F007F900F057
:1053F0002DF970BD08B50121182002F0ABF84FF46B
:105400007070ADF8000003208DF8020010208DF8B8
:10541000030069460B4800F0EBFE4FF4C040ADF8C6
:10542000000003208DF8020010208DF8030069466B
:10543000054800F0DDFE4FF40050034908614000CC
:10544000086108BD000C01400010014008B50121B1
:10545000182002F07FF84FF45070ADF800000320E0
:105460008DF8020010208DF803006946154800F001
:10547000BFFE8020ADF8000003208DF80200482018
:105480008DF8030069460F4800F0B2FE4FF4C040AB
:10549000ADF8000003208DF8020010208DF8030005
:1054A0006946094800F0A4FE4FF40050064908611F
:1054B0004000086180110349103108604000086015
:1054C00008BD0000000C01400010014070B500F064
:1054D000B3F89F2000F038F8FFF730FF00F016F81F
:1054E000044600F013F8054600F010F80646FFF7F2
:1054F00037FF00F0ABF8EF2C05D1602D03D1182E4B
:1055000001D1002070BD4FF0FF30FBE74FF4804128
:105510000B4A51610B490968C1F387004FF4804180
:105520001161516100F0F001064A1268C2F3831262
:1055300041EA02004FF48041014A116170470000C6
:1055400000100140080C014000F0F00189000D4AF4
:105550001160F02181438900121D11604FF48041D8
:10556000094A116151610107890D064A11600F2135
:1055700081438901121D11604FF48041024A11617B
:1055800051617047100C01400010014070B500F0EF
:1055900053F89F2000F032F800F014F8044600F0B1
:1055A00011F8054600F00EF8064600F04FF8EF2C13
:1055B00005D1402D03D1182E01D1002070BD4FF030
:1055C000FF30FBE7002112E04206100E4FF480424C
:1055D000084B5A61084A126802F080020AB1421C64
:1055E000D0B24FF48042034B1A614A1CD1B2082951
:1055F000EADB704700100140080C0140002113E075
:1056000000F080021AB14022094B1A6003E04022E8
:10561000074B1B1D1A604FF48042064B1A615A61FA
:105620004206100E4A1CD1B20829E9DB704700007F
:10563000100C0140001001404FF4804002494861C5
:105640004010486170470000001001404FF40050C6
:1056500002490861400008617047000000100140E5
:1056600070B586B006460C463146012000F008FFB2
:1056700005460195029503950495059505980A3010
:105680000590042205A8059900F0DEFE01980E3071
:105690000190042201A8019900F0D6FE049812306E
:1056A0000490042204A8049900F0CEFE039816305A
:1056B0000390042203A8039900F0C6FE059828442D
:1056C000206002981C300290022202A8029900F089
:1056D000BBFE019828440E30606005982844206085
:1056E0000198E0720598A072049860730398A07303
:1056F00002982081A17A01980E30814201D10020C8
:105700002073A17A01980E30814201D901202073C3
:1057100006B070BD10B504462146012000F0C5FE5C
:1057200080B210BD70B504460D4616463246294675
:10573000204600F095F870BD2DE9F04107460E4671
:105740001C221049384600F08BF80E4C241D002511
:1057500004E0206838442060241D6D1C072DF8D318
:105760001C220949304600F07BF8074C241D002517
:1057700004E0206830442060241D6D1C072DF8D300
:10578000BDE8F081D0C40020ECC4002010B5044670
:1057900000F027F9FFF750FF2020FFF7D5FEC4F3F4
:1057A0000740FFF7D1FEC4F30720FFF7CDFEE0B2BC
:1057B000FFF7CAFEFFF74AFF00F0BCF810BD10B5B6
:1057C000044600F00EF9FFF737FF2020FFF7BCFE7C
:1057D000C4F30740FFF7B8FEC4F30720FFF7B4FE99
:1057E000E0B2FFF7B1FEFFF731FF10BD10B5FFF7D4
:1057F0002DFEFFF7CBFE08B9FFF7C4FDFFF7FAFD5A
:10580000FFF764FE30B1FFF72FFB12A0FFF780F91E
:1058100000BFFEE7002000F05BF8044624F07C04A3
:105820002146002000F00DF9012000F051F8044657
:1058300024F040042146012000F003F9022000F08A
:1058400047F8044624F004042146022000F0F9F849
:1058500010BD0000466C6173682045525200000084
:105860002DE9F04104460E46174600F063F800218A
:10587000012000F04BF8FFF7DFFE0B20FFF764FE7E
:10588000C4F30740FFF760FEC4F30720FFF75CFE98
:10589000E0B2FFF759FE4FF480400C4908614861BF
:1058A000086148610861486108614861FFF746FD89
:1058B000002503E0FFF72AFE70556D1CBD42F9DBA1
:1058C000FFF74EFDFFF7C2FEBDE8F081001001407A
:1058D00070B505460DB9052408E0012D01D1352428
:1058E00004E0022D01D1152400E00524FFF7A4FEF9
:1058F0002046FFF729FEFFF721FDFFF707FE0646CA
:10590000FFF72EFDFFF7A2FE304670BD70B50446CE
:105910000D4605F0030004F0030140EA0116FFF70D
:105920008BFEC020FFF710FE3046FFF70DFEFFF79D
:105930008DFE70BD10B5FFF77FFE0520FFF704FE5A
:10594000FFF7FCFC00BFFFF7E1FD00F001000028BD
:10595000F9D1FFF705FDFFF779FE10BD2DE9F047FE
:10596000C0B00646894614460027C846002C02DC13
:1059700040B0BDE8F08726F0FF05B5421FD04FF4D8
:10598000807269462846FFF76BFF06F0FF0A09E0C0
:1059900018F8012B50460AF1010A0DF80020641E88
:1059A00004B902E0BAF1FF0FF2DD00BF4FF48072DC
:1059B0006946284600F01EF805F5807500BF0CE02A
:1059C0004FF48077FF2C00DC27463A4641462846B4
:1059D00000F010F83D44B844E41B002CF0DC00BF9C
:1059E000C6E710B5FFF728FE0620FFF7ADFDFFF76D
:1059F0002DFE10BD2DE9F04104460E461746FFF777
:105A000099FFFFF7EEFFFFF717FE0220FFF79CFD5F
:105A1000C4F30740FFF798FDC4F30720FFF794FD98
:105A2000E0B2FFF791FD002503E0705DFFF78CFD0C
:105A30006D1CBD42F9DBFFF709FEFFF77BFFBDE8F8
:105A4000F08170B505460E460DB9012408E0012D20
:105A500001D1312404E0022D01D1112400E0012400
:105A6000FFF7BFFFFFF7E8FD2046FFF76DFD30466B
:105A7000FFF76AFDFFF7EAFDFFF75CFF70BD00006E
:105A800030B503460D4D05F003055DB91C041C43FC
:105A90000A494FF480404000084400E010C18142B0
:105AA000FCD330BD054A4FF480404000104401E073
:105AB00022F8023B8242FBD300BFF2E7D044002031
:105AC000F0B504460D46059E002010E000210AE0D6
:105AD0001718DFF820C00CEB072705EB010C27F89F
:105AE0001C404F1C39B29942F2DB471C38B2B0421D
:105AF000ECDBF0BDD044002008B50121082001F006
:105B000029FD2020ADF8000001208DF802001020B2
:105B10008DF8030069460A4800F06AFB1020ADF8D2
:105B2000000001208DF8020010208DF80300694666
:105B3000034800F05DFB102001491431086008BDE6
:105B4000000C014070B50446002610201A49086078
:105B500000252CE004F4806020B120201649091FA4
:105B6000086002E0202014490860322003F0AEFAF9
:105B7000322003F0ABFA10200F49091F08603220D1
:105B800003F0A4FA20200C490860322003F09EFAAA
:105B90000A2D03D120200849091F0860102006495A
:105BA00008604FF6FF7000EA4404681CC5B20B2D74
:105BB000D0DB304670BD0000140C01402DE9F041EF
:105BC00005466F78384603F09AFA0646042E02DB43
:105BD0000020BDE8F081002445E006EBC60000EBA4
:105BE0000610234901EB800004EB440100EBC100E7
:105BF00000894FF6FF71884234D1688806EBC601F0
:105C000001EB06111A4A02EB810104EB440201EB9D
:105C1000C2010881687806EBC60101EB0611144A3F
:105C200002EB810104EB440201EBC2018873A888F6
:105C300006EBC60101EB06110D4A02EB810104EBF4
:105C4000440201EBC2014881E88806EBC60101EB82
:105C50000611074A02EB810104EB440201EBC20189
:105C6000888102E0641C042CB7DB00BF0020B0E791
:105C700004C700202DE9F04105466E78002405E0B8
:105C8000A91C085DFEF71CFF601CC4B2B442F7DB20
:105C900000240EE0AF1C3B5D143737F91420083F99
:105CA00037F91410AF1D37F81400FEF72DFD601CF6
:105CB000C4B2B442EEDB01F0C1FD0020BDE8F081CA
:105CC00010B50446607800F0020018B102210846C1
:105CD00003F0A6F9607800F0080018B1022108204E
:105CE00003F09EF9607800F0200018B10221202016
:105CF00003F096F9607800F0800018B1022180204E
:105D000003F08EF9002010BD70B50546002408E0B0
:105D1000681C005D012802D12046FEF7D1FE601C00
:105D2000C4B2082CF4DB002070BD10B504466078C6
:105D300000F0020018B10021022003F071F9607830
:105D400000F0080018B10021082003F069F960781C
:105D500000F0200018B10021202003F061F96078E4
:105D600000F0800018B10021802003F059F90020D4
:105D700010BD70B505460C46601C02F0F6FE002012
:105D800070BD00002DE9F05F0C4603F0A1FF8346D3
:105D900084F800B00020607002F0BCFE01283AD107
:105DA00002F010FE054602F017FE064602F01EFE47
:105DB0000746002D01DBA84602E068424FFA80F852
:105DC000002E01DBB14602E070424FFA80F9002F4D
:105DD00001DBBA4602E078424FFA80FAC8450DDB93
:105DE000B8F1190F17DBBAF1190F14DB002D02DD22
:105DF000032060700FE0042060700CE0B9F1190F0F
:105E000009DBBAF1190F06DB002E02DD02206070FB
:105E100001E00120607002F07DFEA070A07810B952
:105E20000420A07002E0A078401EA0700448006822
:105E3000606002F0E9FDE0700020BDE8F09F000026
:105E40001C11002070B505460C46FEF73FFD0449C5
:105E500088611C222146024802F0C4FB002070BD6C
:105E6000D0D2002003460A460C48007800F001001A
:105E700008B101210EE00948007800F0020008B1E5
:105E8000022107E00548007800F0040008B1042171
:105E900000E0002151600020704700002411002024
:105EA00010B5044660884FF6FF71884202D102F0B7
:105EB00025F802E0608803F0C1FE002010BD00005C
:105EC00000B50246507810B901F070F812E0507831
:105ED00005280FDA5078012804D14FF416700649CE
:105EE000086004E04FF496600349086000BF00BFFB
:105EF00001F068F8002000BD6810002070B504466D
:105F00006078002103F08CF805460DB1002070BDCB
:105F10002046FFF753FEFAE770B5044600252846F1
:105F200000F00CF90F48008820F007000D490880A8
:105F300060884FF6FF71884205D060880A49088062
:105F40004FF6FF7048800020084908700A780978E9
:105F5000491C064B1970044931F8120004F060F92D
:105F6000002070BD2411002010C900202211002043
:105F700004460021204604F0EFFA2DE9F0410446E2
:105F8000607800F00F0600250EE0A71C7B5D14373B
:105F900037F91520083F37F91510A71D37F81500F8
:105FA000FEF7B2FB681CC5B2B542EEDB607800F0CC
:105FB000800008B101F042FC0020BDE8F08110B57E
:105FC0000446601C04F062F9002010BD10B50446C0
:105FD0001B4A6068811A90422AD00FDCA0F1407001
:105FE000A0F10300A0B1A0F10070A0F1020090B1F7
:105FF000A0F14070A0F10300E8B916E06FF08070E6
:10600000084458B1A0F1A060A0F1050098B908E0DB
:1060100001F03EFD10E004F0DDF80DE004F07AFC44
:106020000AE0204600F0A8F806E000F07BFD03E05F
:1060300000F08AFD00E000BF00BF002010BD00009E
:10604000090000092DE9F04107460024BE1CA046C6
:10605000404600F073F800BF0AE036F8025B1048D3
:1060600020F814504FF6FF70854200D102E0641C06
:10607000082CF2D300BFBE1C00240AE036F8025BF5
:10608000084820F814504FF6FF70854200D102E016
:10609000641C082CF2D300BF0020BDE8F081000092
:1060A00000C9002010C9002000B502460B46034974
:1060B00050680860FEF71EFD002000BD5011002052
:1060C00010B504466088FFF73DFD10BD7CB5054660
:1060D0000C4669460020FFF7C5FE0198A07003F04A
:1060E0008FFDE07002480078607000207CBD0000E9
:1060F0000C00002010B50446607800F0020018B1D2
:106100000121022002F08CFF607800F0080018B135
:106110000121082002F084FF607800F0200018B10F
:106120000121202002F07CFF607800F0800018B18F
:106130000121802002F074FF002010BD10B504463C
:1061400001200849088008200749087000200749F5
:106150000870074908700749087001F0D5FE002053
:1061600010BD00002411002020110020211100206A
:10617000221100202311002004460121204604F0B2
:10618000EBF9000008B50121112001F0E3F903202B
:106190008DF802000F20ADF8000000208DF80300FC
:1061A0006946024800F024F808BD000000100140D4
:1061B00030B500228B071C0F0F2303FA04F20B4BA0
:1061C0008C1053F824309343084C8D1044F825303C
:1061D00023468C1053F824308C07240F00FA04F463
:1061E0002343024C8D1044F8253030BD0800014097
:1061F0002DE9F0410246002500260020002300245E
:10620000002791F803C00CF00F0591F803C00CF0C3
:10621000100CBCF1000F03D091F802C04CEA050548
:1062200091F800C0BCF1000F31D0146800202BE0C1
:106230004FF0010C0CFA00F3B1F800C00CEA0306B1
:106240009E4220D183004FF00F0C0CFA03F7BC43A1
:1062500005FA03FC4CEA040491F803C0BCF1280FD2
:1062600006D14FF0010C0CFA00FCC2F814C00AE091
:1062700091F803C0BCF1480F05D14FF0010C0CFAA6
:1062800000FCC2F810C0401C0828D1D31460B1F83B
:1062900000C0BCF1FF0F34DD546800202EE000F197
:1062A000080C4FF0010808FA0CF3B1F800C00CEA32
:1062B00003069E4221D183004FF00F0C0CFA03F726
:1062C000BC4305FA03FC4CEA040491F803C0BCF19A
:1062D000280F05D100F1080C08FA0CF8C2F8148058
:1062E00091F803C0BCF1480F07D100F1080C4FF042
:1062F000010808FA0CF8C2F81080401C0828CED318
:106300005460BDE8F0810000F0B50A460023002487
:106310000021002500F00046B6F1004F02D11D4ECD
:10632000F16901E01B4E7168C0F3034583B200F4CC
:106330004016B6F5401F08D121F07061154E766801
:1063400026F07066134F7E6012E000F48016B6F5FA
:10635000801F06D1032606FA05F4A14341F07061BF
:1063600006E0460D360103FA06F6B14341F07061CE
:1063700022B1460D360103FA06F6314300F000461D
:10638000B6F1004F02D1034EF16101E0014E7160A0
:10639000F0BD0000000001400246002093680B4061
:1063A0000BB1012000E0002070474161704701619E
:1063B00070470AB1016100E0416170472DE9F04189
:1063C0000446254615F8016B172E01DBBDE8F08168
:1063D000054800EBC600407920B9034850F83670F4
:1063E0002846B84700BFF1E734AA00082DE9F04776
:1063F00004468946012C02DA0020BDE8F0874FF000
:10640000070A09F4004028B10D4F4FF4803000EB2B
:10641000840804E00B4F4FF4010000EB840854455E
:1064200004DC3E4606EB8406356807E04646042257
:1064300029463046FFF714FA05F580352846DCE793
:10644000D0C40020ECC4002070B504460D461646AA
:10645000324621462846FFF765F9304670BD2DE9E2
:10646000F04107460C46904626684246314638467B
:10647000FFF7EAFF0546701920602846BDE8F08165
:10648000F8B506460C4621463046FFF7AFFF0546F5
:10649000C4F30E04291D01EB840004226946FFF7B2
:1064A000DFF9009805442846F8BDF8B504460D46C6
:1064B00029462046FFF79AFF0646042269463046E1
:1064C000FFF7CEF90098F8BD70B503460E460024DC
:1064D000002500210AE058561C2801DB641C04E05A
:1064E000585610F11C0F00DC6D1C491CB142F2DB48
:1064F000012C04DB012D02DB0120107001E00020E3
:106500001070AC4201DD284670BD2046FCE72DE945
:10651000F043044607AD95E8E010DDE90B89802CD7
:1065200003DB4FF0FF30BDE8F083002C03DB2C8051
:10653000002038700AE0A018002804DD0020288020
:106540006042387002E04FF0FF30ECE7A01880287E
:1065500006DDB5F90000C0F1800088F8000003E016
:106560003878101A88F80000802902DB4FF0FF30DD
:10657000D9E7002904DB318000208CF800000BE013
:10658000C818002805DD0020308048428CF8000043
:1065900002E04FF0FF30C6E7C818802806DDB6F9E4
:1065A0000000C0F1800089F8000004E09CF80000C1
:1065B000181A89F800000020B5E7F0B505ACF0CC5A
:1065C0002A7033703C70062875D2DFE800F0033380
:1065D00078A7EAF2022906D003290DD0042914D0A5
:1065E000052924D11FE02C70C3F1000C4FFA8CFC5C
:1065F00086F800C03A701BE0C4F1000C4FFA8CFC26
:1066000085F800C033703A7012E0C3F1000C4FFA05
:106610008CFC85F800C0C4F1000C4FFA8CFC86F8A5
:1066200000C03A7004E02B7034703A7000E000BF94
:1066300000BF2AE1022906D0032917D004291ED061
:10664000052939D129E0C4F1000C4FFA8CFC85F8FA
:1066500000C0C3F1000C4FFA8CFC86F800C0C2F1F8
:10666000000C4FFA8CFC87F800C026E02C703370C9
:10667000C2F1000C4FFA8CFC87F800C01DE02B70B3
:10668000C4F1000C4FFA8CFC86F800C0C2F1000C7B
:106690004FFA8CFC87F800C00FE0C3F1000C4FFAF2
:1066A0008CFC85F800C03470C2F1000C4FFA8CFCF1
:1066B00087F800C001E0E7E000BF00BFE5E031B1CE
:1066C000012912D0042914D0052924D11AE0C4F1DB
:1066D000000C4FFA8CFC85F800C0C2F1000C4FFA98
:1066E0008CFC86F800C03B7016E02C7032703B705A
:1066F00012E02A70C4F1000C4FFA8CFC86F800C03E
:106700003B7009E0C2F1000C4FFA8CFC85F800C028
:1067100034703B7000E000BF00BFB6E031B101292A
:1067200012D004291ED0052938D12EE02C70C2F1D8
:10673000000C4FFA8CFC86F800C0C3F1000C4FFA35
:106740008CFC87F800C02AE0C4F1000C4FFA8CFCE6
:1067500085F800C03270C3F1000C4FFA8CFC87F84A
:1067600000C01CE0C2F1000C4FFA8CFC85F800C0A0
:10677000C4F1000C4FFA8CFC86F800C0C3F1000C89
:106780004FFA8CFC87F800C009E02A703470C3F11E
:10679000000C4FFA8CFC87F800C000E000BF00BF7F
:1067A00073E039B101290ED0022915D0032925D172
:1067B00020E026E02B70C2F1000C4FFA8CFC86F82A
:1067C00000C03C701BE0C3F1000C4FFA8CFC85F854
:1067D00000C032703C7012E0C2F1000C4FFA8CFC29
:1067E00085F800C0C3F1000C4FFA8CFC86F800C09D
:1067F0003C7004E02A7033703C7000E000BF00BFC2
:1068000043E031B1012917D002291ED0032938D124
:1068100029E0C3F1000C4FFA8CFC85F800C0C2F1EE
:10682000000C4FFA8CFC86F800C0C4F1000C4FFA43
:106830008CFC87F800C025E02B703270C4F1000C8E
:106840004FFA8CFC87F800C01CE02A70C3F1000CE2
:106850004FFA8CFC86F800C0C4F1000C4FFA8CFC97
:1068600087F800C00EE0C2F1000C4FFA8CFC85F8EE
:1068700000C03370C4F1000C4FFA8CFC87F800C0E4
:1068800000E000BF00BF00E000BF00BFF0BD00009F
:1068900070B5054601F024F801201E490860002665
:1068A00015E06006040E02201A49091D0860FEF773
:1068B000BEFA022017490860FEF7B9FA012115480F
:1068C0001038FFF769FD2044C4B2701CC6B2082E10
:1068D000E7DB02200F49091D086001F011F825B916
:1068E00001200C49091D086002E0012009490860E7
:1068F000FEF79DFA022007490860FEF798FA022089
:106900000449091D086001200860FEF790FA20463E
:1069100070BD0000100C014010B50120084908604E
:1069200002200860FEF783FA01200549091D08606E
:10693000FEF77DFA02200249091D086010BD000023
:10694000100C014010B50120054908600220091F04
:106950000860FEF76CFA01200149091F086010BDAC
:10696000140C014070B5044602202049086000253F
:1069700019E004F0800020B101201C49091F0860C3
:1069800002E0012019490860FEF751FA0220174978
:10699000091F0860FEF74BFA0220144908606006E0
:1069A000040E681CC5B2082DE3DB00F099FF01203E
:1069B0000E49091F0860FEF73AFA02200B49091F29
:1069C0000860FEF734FA012108481438FFF7E4FCA8
:1069D000064602200549086000F092FF01200349A5
:1069E0000860FEF724FA304670BD0000140C014028
:1069F0004CF6CC4001490860704700000030004070
:106A00004AF6AA20014908607047000000300040A3
:106A1000014948607047000000300040014988602B
:106A200070470000003000400149086070470000D6
:106A3000003000402DE9F04100274FF001081C22F2
:106A400017490020FEF70CFF154840694AF6AA21B5
:106A5000884204D1124880694910884202D04FF020
:106A6000000809E00E4801F037FF07460C480069AE
:106A7000B84201D04FF00008B8F1000F0DD1072641
:106A8000074D002404E04FF0FF3028602D1D641CEA
:106A9000B442F8DB024803F099FFBDE8F081000042
:106AA000E8C600200248007A00F01000704700009D
:106AB0005C11002008B50121142000F04BFD4FF4BB
:106AC0006C70ADF8000010208DF8030003208DF8E5
:106AD000020069460848FFF78BFB4FF4FF50ADF802
:106AE000000010208DF8030003208DF80200694695
:106AF0000248FFF77DFB08BD00100140000801407F
:106B000010B5FFF7D7FF00F045F83A2000F0B0F8D5
:106B1000052000F0C3F8362000F0AAF8682000F045
:106B2000BDF810BD06480078012800D0704720202D
:106B30000449486102200249087000BFF6E70000DE
:106B4000631000200010014010B5094800780228A9
:106B500000D010BDFFF7D4FF112000F089F82920E4
:106B600000F086F801200249087000BFF1E700003C
:106B70006310002010B504468123802202210120E9
:106B800000F018F84FF4004221462C2000F03CF8A9
:106B900010BD000010B52020054948610A2002F010
:106BA000C1FA2020024908610A2002F0BBFA10BD98
:106BB000001001402DE9F04104460D4616461F46DF
:106BC0002A2000F055F8C4F3072000F067F8E0B27F
:106BD00000F064F8C6F3072000F060F8F0B200F0AF
:106BE0005DF82B2000F044F8C5F3072000F056F8BC
:106BF000E8B200F053F8C7F3072000F04FF8F8B2FE
:106C000000F04CF8BDE8F0812DE9F04107460D4653
:106C1000164610201549486100010861400048618E
:106C2000802048613846FDF79DFF80200F490861AC
:106C300080000861002411E080200C494861611C3B
:106C4000685CFDF78FFF8020084908614861285D76
:106C5000FDF788FF802005490861A41CB442EBDBE6
:106C6000102002490861BDE8F081000000100140D9
:106C700010B50446102008494861400148614010A1
:106C80000861802048612046FDF76CFF80200249A2
:106C900008611020086110BD0010014010B50446C5
:106CA00010200849486140010861401008618020B7
:106CB00048612046FDF756FF8020024908611020F8
:106CC000086110BD0010014010B51120FFF7D0FF82
:106CD0002920FFF7CDFF01200149087010BD0000F9
:106CE0006310002008B501210C2000F033FC0120C6
:106CF000ADF800008DF8020010208DF80300694601
:106D00001148FFF775FA0220ADF8000001208DF858
:106D1000020010208DF8030069460B48FFF768FA5F
:106D20000120ADF800008DF8020048208DF8030026
:106D300069460648FFF75CFA0120034910310860F4
:106D40000220086008BD0000000C0140000801405E
:106D50002DE9FE43044602AA1E211A48FFF7B4FBA0
:106D6000064601AA1E211848FFF7AEFB07466A46F1
:106D70001E211648FFF7A8FB8046BE4201DD3046C3
:106D800000E038460546454501DD284600E040461E
:106D90000546FDF79BFD6060042D02DB032020709B
:106DA0000DE09DF808009DF8041008439DF80010C0
:106DB000084310B10220207001E001202070BDE8DE
:106DC000FE83000094C80020B2C80020D0C8002074
:106DD0000EB500210846FFF7EBF9012001900020D5
:106DE0008DF8080008208DF8090001208DF80A00B0
:106DF00001A8FEF7FFF906208DF8000002208DF8AB
:106E0000010000208DF8020001208DF80300684683
:106E100000F0E4F80EBD00002DE9F041FFF762FF3D
:106E2000E124142511264FF01008E0270021072047
:106E300001F0B6FA2946052001F0B2FA31460820E1
:106E400001F0AEFA4146062001F0AAFA39460920BF
:106E500001F0A6FA2146072001F0A2FA072000F06F
:106E6000B1FCA04213D1052000F0ACFCA8420ED129
:106E7000082000F0A7FCB04209D1062000F0A2FCD7
:106E8000404504D1092000F09DFCB8420CD0FDF72C
:106E9000EBFF0AA20021084600F009FB00F0FCFC11
:106EA0004FF4FA6002F03EF9FFF792FF032000F082
:106EB00089FC002005490860BDE8F0816773656EB4
:106EC000736F72206661696C000000007010002012
:106ED00010B50021072001F063FA0021062001F01F
:106EE0005FFA072000F06EFC10BD0000014600298B
:106EF00002DB04484056704702484A42805C4042E8
:106F000040B2F8E7F810002010B500230F4C2370B2
:106F10000F4B93F9003003700E4B93F900300B7058
:106F20000D4B93F90030137023461B78012B0BD1C6
:106F3000074B93F900300370064B93F900300B7048
:106F4000054B93F90030137010BD00006F10002046
:106F50006C1000206D1000206E10002000B5064857
:106F6000006828B104480068401E0349086001E039
:106F700000F01CF800BD00006810002008B50121D9
:106F8000082000F0E7FA4FF40060ADF80000102090
:106F90008DF8030003208DF8020069460248FFF7D0
:106FA00027F900F003F808BD000C01400020034958
:106FB00008704FF4006002490860704764100020B8
:106FC000140C0140012003490870C0020249086006
:106FD0007047000064100020100C014070B50021C3
:106FE00000230F22C47804B3154C246804F4E06431
:106FF000C4F5E064210AC1F10403CA40447804FAEC
:1070000003F184781440214309010E4C0678A15500
:10701000047804F01F050124AC4005786D11AD0023
:1070200005F1E025C5F8004109E0047804F01F05EA
:107030000124AC40044D0678761145F8264070BD19
:107040000CED00E000E400E080E100E002490143D3
:10705000024A1160704700000000FA050CED00E0E4
:107060001CB528208DF8000000208DF801000120BB
:107070008DF8020000208DF803006846FFF7AEFF90
:107080000121084600F066FA01210D48FFF73CF99E
:1070900001210C48FFF738F901210C2000F05AFAC1
:1070A0004FF40040ADF8040001208DF806001020D8
:1070B0008DF8070001A90448FFF79AF81CBD0000ED
:1070C00000013000000230000008014010B5044605
:1070D00021460220FFF7D4F9184908600846042227
:1070E000016800F60C00FFF7AFF914480068001DB6
:1070F0001249086008460222016800F61400FFF7F2
:10710000A3F90E480068801C0C49086000210B4858
:1071100080F816180068094948600846D0F80C083D
:10712000C1F810080846B0F81408A1F81808102093
:10713000088101F011FA02F0E9FC10BD5C11002099
:1071400070B504460D46164632462946204600F0E4
:1071500001F870BD2DE9F0411446002807DA7828BF
:1071600005DD002903DA702901DDBDE8F08125463F
:107170004FF6FF7707EA0515002228E0164F7E5DDF
:1071800000231EE006F080075FB1002701EB020C30
:10719000DFF8488008EB0C2C00EB03082CF8187083
:1071A0000BE04FF6FF7701EB020CDFF8308008EBC5
:1071B0000C2C00EB03082CF8187077063E0E5F1CB1
:1071C000FBB2082BDEDB6F1CBDB2571CFAB2102AD3
:1071D000D4DB00BFC9E7000030000020D04400200D
:1071E0002DE9F74FADF5787D81464FF6FE7081456C
:1071F00005D100F0A1FA0DF57B7DBDE8F08F484682
:10720000FEF788FA8246C9F30E01514500DBF2E72A
:10721000F4A94846FEF724FAF0A9F2A8F1AAF3ABC4
:10722000CDE90232CDE90401EEA8EFA9CDE90010C5
:107230009DF8DE339DF8DD23FA99F998FFF767F999
:1072400000B1D8E79DF8DC0300284AD19DF8DE03A1
:10725000401E9DF8C413401A00F0FF0B9DF8DD039B
:10726000401C4010AC904FF6FF71AC9801EA400012
:10727000AC90002631E0ABEB06029DF8CC33AC9825
:1072800000FB0230F49901EB4000AD909DF8C8037B
:107290004200AEA9AD98FEF745FABDF9B8033044F7
:1072A0005F4901EB0020BDF9BC1300EB410500274D
:1072B0000DE0AEA830F817004EF21F01884203D04F
:1072C000AEA830F817002880AD1C781C87B29DF856
:1072D000C8038742EDDB701C86B29DF8C00386426E
:1072E000C9DB9DF8DC0301287ED10020AB909DF81E
:1072F000DE03401E9DF8C413401A00F0FF0B9DF8FA
:10730000DD13481C00EBD071491002910299C81C92
:10731000C11700EB917189104FF6FF7202EA8101EB
:107320000291F598039000240BE037A800EB84014C
:1073300004220398FEF7F6F90398001D0390601CE1
:1073400084B2BDF8D8130801C11700EB9171B4EBFA
:10735000A10FEADB102237A905A800F019FA9DF861
:10736000CC0300EBD0714910F391002451E0ABEB5A
:1073700004029DF8CC33029800FB0230F4990844D3
:1073800004909BA9029A0498FEF7CCF9BDF9B803C2
:107390002044234901EB0020BDF9BC1300EB41055B
:1073A0004FF000082CE09BA810F80800000901909D
:1073B0009BA810F8080000F00F00009005A90198A4
:1073C00031F810004EF21F01884204D005A901983F
:1073D00031F810002880AD1C05A9009831F8100084
:1073E0004EF21F01884200E018E004D005A9009881
:1073F00031F810002880AD1C08F101001FFA80F858
:107400009DF8C80300EBD071B8EB610FCBDB601CBB
:1074100084B29DF8C0038442A9DB00BF00BFEAE646
:10742000D04400202DE9F047064688461446251131
:10743000002716E00A2D04DA05F1300000F0FF09FC
:1074400003E005F1570000F0FF094A464146304687
:10745000FFF776FE06F1080006B204F00F05781C6F
:10746000C7B2022FE6DBBDE8F0872DE9F0470646FC
:107470000F4690469946DDF820A00025002412E032
:1074800019F80420142101FB056108B23946FFF701
:10749000C9FF681CC5B2454503DB002507F10F0095
:1074A00007B2601CC4B25445EADBBDE8F0872DE9A1
:1074B000F04106460F461446002509E0625D394654
:1074C0003046FFF747FE06F1080006B2681C85B299
:1074D000605D0028F2D1BDE8F08100000146002087
:1074E000034A506820F44040084350607047000051
:1074F0000010024029B1064A52690243044B5A6106
:1075000004E0034A52698243014B5A61704700000C
:107510000010024029B1064AD2690243044BDA61E5
:1075200004E0034AD2698243014BDA6170470000EC
:107530000010024029B1064A12690243044B1A6145
:1075400004E0034A12698243014B1A61704700004C
:107550000010024029B1064A92690243044B9A6125
:1075600004E0034A92698243014B9A61704700002C
:107570000010024029B1064AD2680243044BDA6087
:1075800004E0034AD2688243014BDA60704700008E
:10759000001002400F48006840F001000D490860EB
:1075A000084640680C4908400A4948600846006897
:1075B0000A490840074908600846006820F480200E
:1075C00008600846406820F4FE0048604FF41F0041
:1075D00088607047001002400000FFF8FFFFF6FED1
:1075E00010B501460022002300204A11012A02D1D1
:1075F000094C236806E0022A02D1074C236A01E005
:10760000054C636A01F01F02012494401C400CB138
:10761000012000E0002010BD001002400248406838
:1076200000F00C00704700000010024001460020EE
:10763000034A506820F0F000084350607047000093
:10764000001002401149096821F480310F4A11608D
:107650001146096821F480211160B0F5803F03D004
:10766000B0F5802F0ED106E00849096841F4803159
:10767000064A116007E00549096841F4A021034A60
:10768000116000E000BF00BF704700000010024022
:1076900001460020034A506820F4E060084350602F
:1076A000704700000010024001460020034A506865
:1076B00020F4605040EAC100506070470010024062
:1076C000014908667047000000004242024600205F
:1076D000044B586820F47C1042EA01031843014B24
:1076E000586070470010024001460020034A50686D
:1076F00020F0030008435060704700000010024073
:1077000038B5002000900024002500BF3120FFF78D
:1077100067FF05460098401C00900098B0F5A06FE8
:1077200001D0002DF2D03120FFF75AFF08B101241B
:1077300000E00024204638BD2DE9F041134A4FF403
:10774000804700261EE01188CB1201F4FC6C4FEA42
:10775000AC1401F01F0503EB430C05EB45080CEBE3
:10776000480CA4444FF00A089CFBF8FC1FFA8CF06C
:107770004FEAC02C4CEA801C4CEA000CA2F800C076
:10778000921C761CBE42DEDBBDE8F081D0440020B6
:10779000F0B50346002012E051F82070C7F3C4464C
:1077A00031F82070C7F3852411F82070C7F3C405A1
:1077B000F70207EB44172F4423F81070401C904247
:1077C000EADBF0BD70B50446FFF7A6F89820FFF796
:1077D000C9F82046FFF7C6F8FFF79EF89920FFF793
:1077E000C1F80120FFF754F80546FFF7ABF828462B
:1077F00070BD2DE9F04107460D461646FFF78CF89F
:107800009820FFF7AFF83846FFF7ACF8FFF784F899
:107810009920FFF7A7F8002404E00020FFF738F8CC
:107820002855641C701EA042F7DC0120FFF730F8D9
:107830002855FFF787F8BDE8F081000070B54FF6D6
:10784000FF70FEF71DF900241EE004EB440011490F
:1078500031F810004FF6FF71884214D004EB440356
:107860000C4D05EB4303B3F9042004EB440305EB93
:107870004303B3F9021004EB440335F81300FFF798
:10788000AFFC02F013FF641C402CDEDB00F004F8B8
:1078900070BD00005043002010B507480078012853
:1078A00005D10622652148F2D100FFF799FC034873
:1078B000FFF760F910BD00000E000020D04400204A
:1078C00010B54020FDF77CFC01F0C4FC01F0ACFEDB
:1078D00010BD10B54FF0FF3003F06EF810BD000082
:1078E00008B50120ADF800008DF8020048208DF8A1
:1078F000030069460148FEF77BFC08BD000C01400F
:1079000008B50120ADF800008DF8020010208DF8B8
:10791000030069460148FEF76BFC08BD000C0140FE
:1079200021B1028842F04002028004E002884FF652
:10793000BF731A4002807047CA43028170470246F3
:10794000002013890B400BB1012000E0002070479C
:107950000146888970478181704710B500220288EE
:1079600002F441520B884C8823438C882343CC88F3
:1079700023430C8923434C8923438C892343CC899B
:1079800023431A430280838B4FF2FF742340838387
:107990000B8A038210BD000000B587B001210846A4
:1079A000FFF7D8FD01213C20FFF7D4FD012188031A
:1079B000FFF7B0FD4FF48050ADF8180001208DF8AE
:1079C0001A0010208DF81B0006A92A48FEF710FCAB
:1079D0004FF46040ADF8180001208DF81A0018200F
:1079E0008DF81B0006A92348FEF702FC4020ADF8E5
:1079F000180001208DF81A0004208DF81B0006A93C
:107A00001D48FEF7F5FB0820ADF8180001208DF8A1
:107A10001A0010208DF81B0006A91848FEF7E8FB95
:107A20000020ADF804004FF48270ADF8060000208D
:107A3000ADF80800ADF80A00ADF80C004FF4007086
:107A4000ADF80E001020ADF810000020ADF81200C7
:107A50000720ADF8140001A90948FFF77EFF0121B6
:107A60000748FFF75DFF02210548FFF765FF07B0F4
:107A700000BD0000000C0140001001400008014062
:107A800000380040014800697047000038C90020F4
:107A90000EB501210846FFF75DFD01212448FEF7E0
:107AA00033FC01212348FEF72FFC01210420FFF7BE
:107AB00051FD002002F0D2FB0F210020FEF778FBE1
:107AC0004FF40040019000208DF808000C208DF844
:107AD000090001208DF80A0001A8FDF78BFB282082
:107AE0008DF8000000208DF8010001208DF80200C3
:107AF0008DF803006846FFF771FA14220E490F480B
:107B000000F037FF0D4800F02FFF14220C490D48FC
:107B100000F02FFF0B4800F027FF00200A490870F3
:107B20000A490870FCF7D2FE0949086000200EBD22
:107B300000013000000230002C1100204CC9002050
:107B400060C9002038C900204C1100204D110020D0
:107B50004411002070B504460D462A4621460248CD
:107B600000F0D8FE70BD000038C9002070B5054691
:107B70000C460D480068A84207D10B4884600020DD
:107B80000949C8600846046104E0224629460648BF
:107B900000F0F2FE0549044800F0D0FE10B90020C4
:107BA0000249087070BD00004CC90020401100203F
:107BB000F0B502460B48C3680468056900200DE073
:107BC000E618365C02F8016B6D1E1E18054F7F68C3
:107BD000BE4202D3034E7668A41B401C0DB18842FE
:107BE000EED3F0BD38C9002070B588B0142103A8C9
:107BF000FCF7DFFAFFF746FF02280BD3022103A8A8
:107C0000FFF7D6FF9DF80C005A2804D0012103A8E5
:107C1000FFF7A0FFD4E09DF80D50072D74D2DFE8E8
:107C200005F0C904162E4C749F0001206549487068
:107C3000881C01F00BFE5A206249C8710821614876
:107C4000FFF794FF022103A8FFF784FFB7E0FFF7D7
:107C500019FF082812D3082103A8FFF77BFF9DF81E
:107C600013005A280AD1022056494870022155486B
:107C7000FFF77CFF0DF10E0001F00EFE9FE00320E8
:107C80005049487002F024F8029002AC14F8010B3D
:107C90004C49887014F8010BC87014F8010B087176
:107CA000207848715A20887107214648FFF75EFF07
:107CB000022103A8FFF74EFF81E0FFF7E3FE07284C
:107CC00021D3072103A8FFF745FF9DF812005A288A
:107CD00019D104203B49487002213A48FFF746FF7A
:107CE00001AC9DF80E0004F8010B9DF80F0004F89C
:107CF000010B9DF8100004F8010B9DF81100207095
:107D0000019800F043FB5AE054E0FFF7BBFE072860
:107D100025D3072103A8FFF71DFF9DF812005A285D
:107D20001DD105202749487002212648FFF71EFF74
:107D30009DF80E00752812D19DF80F0070280ED105
:107D40009DF8100064280AD19DF81100612806D121
:107D5000012001F0E7F9FFF7BCFDFCF701FA2EE086
:107D6000FFF790FE0C2824D30C2103A8FFF7F2FEA6
:107D70009DF817005A281CD106201249487002218C
:107D80001048FFF7F3FEFCF7A1FD064600BFFFF722
:107D900079FE022806D2FCF799FD301A40F6B83178
:107DA0008842F4D3FFF75CF90DF10E0001F0F8FC06
:107DB00000BF04E0022103A8FFF7CCFE00BF00BF14
:107DC00008B070BD2C11002070B504460D46082087
:107DD0000A49086001F03EFA4E21002001F079FCCA
:107DE0002946204601F0CAFC4020FDF7E9F901F0E0
:107DF00031FA08200149091F086070BD14080140CC
:107E00000348006840F00100014908607047000025
:107E10003410002010B500F001F810BD0CB50020A2
:107E2000019000903348006840F480303149086088
:107E300000BF3048006800F4003000900198401CFA
:107E40000190009818B90198B0F5A06FF1D12948B8
:107E5000006800F4003010B10120009001E0002023
:107E600000900098012843D12348006840F010009A
:107E7000214908600846006820F0030008600846B1
:107E8000006840F0020008601A48406819494860DC
:107E90000846406848600846406840F48060486092
:107EA0000846406820F47C1048600846406840F46A
:107EB000E81048600846006840F08070086000BF25
:107EC0000C48006800F000700028F9D009484068AC
:107ED00020F00300074948600846406840F002006F
:107EE000486000BF0348406800F00C000828F9D142
:107EF0000CBD00000010024000200240002001499B
:107F000008817047781900200020014908817047D6
:107F10005C11002010B51348006840F001001149C1
:107F2000086008464068104908400E494860084605
:107F300000680E4908400B4908600846006820F4B4
:107F4000802008600846406820F4FE0048604FF436
:107F50001F008860FFF75EFF4FF000600449086073
:107F600010BD0000001002400000FFF8FFFFF6FE09
:107F700008ED00E010B50121880700F09BF938B149
:107F80000121880700F093F8FCF72AFDFEF7E6FFD1
:107F900010BD00002DE9F0474FF400693948008812
:107FA00000F0010000286AD03748006828B336483E
:107FB00000683649B1F9001030F91140002C03DB9C
:107FC00004F1080004B202E0A4F1080004B2204663
:107FD000E11704EB117109110CB2B4F5006F01DB6C
:107FE00040F2FF7414F5006F00DA294C09EB04002D
:107FF0000FFA80F9C9F30B0901E04FF40069484614
:10800000FCF754F90746234A234BFCF7DDF80546F5
:10801000FCF75DF980B2214908602148006820B969
:108020002048006808B901F03BFD18480088401C52
:1080300000B2164908800846B0F90000B0F5006F9C
:1080400017DB1148006816490968884207D10020EB
:1080500013490860134800680B49086006E00020D7
:10806000104908600E480068074908600020074969
:1080700008800448008820F0010002490880BDE81B
:10808000F0870000100400409C210020A021002067
:1080900000F8FFFF9A9999999999C93F087400408F
:1080A0009421002098210020CA4302827047CA43CD
:1080B0000282704721B1028842F00102028004E08E
:1080C00002884FF6FE731A400280704710B50446CE
:1080D0006848844208D10121C014FFF74BFA0021FF
:1080E000E014FFF747FAC4E0B4F1804F08D1012152
:1080F0000846FFF71FFA00210120FFF71BFAB8E03E
:108100005D48844208D101210220FFF713FA0021C3
:108110000220FFF70FFAACE05848844208D1012151
:108120000420FFF707FA00210420FFF703FAA0E07C
:108130005348844208D101210820FFF7FBF90021B0
:108140000820FFF7F7F994E04E48844208D1012156
:108150001020FFF7EFF900211020FFF7EBF988E07E
:108160004948844208D101212020FFF7E3F900218A
:108170002020FFF7DFF97CE04448844208D1012148
:108180004014FFF7F7F900216014FFF7F3F970E0EE
:108190003F48844209D10121C804FFF7EBF90021CF
:1081A0004FF40020FFF7E6F963E03A48844209D132
:1081B00001210805FFF7DEF900214FF48010FFF7D9
:1081C000D9F956E03448844209D101214805FFF726
:1081D000D1F900214FF40010FFF7CCF949E02F4806
:1081E000844208D101214020FFF7A4F9002140205A
:1081F000FFF7A0F93DE02A48844208D10121802000
:10820000FFF798F900218020FFF794F931E0254825
:10821000844208D101218015FFF78CF90021A015B7
:10822000FFF788F925E02048844209D1012108049C
:10823000FFF7A0F900214FF48030FFF79BF918E019
:108240001A48844209D101214804FFF793F900211B
:108250004FF40030FFF78EF90BE01548844208D147
:1082600001218804FFF786F900214FF48020FFF7F1
:1082700081F910BD002C01400004004000080040BE
:10828000000C004000100040001400400034014089
:10829000004C0140005001400054014000180040D3
:1082A000001C00400020004000400140004401400C
:1082B0000048014030B50246002000230024158A02
:1082C00005EA0103958905EA010413B10CB1012007
:1082D00000E0002030BD1AB183890B43838102E0A6
:1082E00083898B4383817047002202881D4B98420B
:1082F0000ED01D4B98420BD0B0F1804F08D01B4BD5
:10830000984205D01A4B984202D01A4B984204D199
:108310004FF68F731A404B881A43174B984207D079
:10832000164B984204D04FF6FF431A40CB881A43AD
:1083300002808B8883850B8803850A4B98420BD07B
:10834000094B984208D00E4B984205D00D4B9842ED
:1083500002D00D4B984201D10B7A03860123838210
:1083600070470000002C0140003401400004004030
:1083700000080040000C00400010004000140040C5
:1083800000400140004401400048014010B504464F
:108390000248846002F01AFB10BD0000E8C600200D
:1083A00070B505460C46FEF7B7FA9820FEF7DAFAE4
:1083B0002846FEF7D7FA2046FEF7D4FAFEF7C2FAAF
:1083C00070BD000010B5044621460220FEF758F8A3
:1083D0001849086008460422016800F60C00FEF700
:1083E00033F814480068001D12490860084602224C
:1083F000016800F61400FEF727F80E480068801C9C
:108400000C49086000210B4880F8161800680949DB
:1084100048600846D0F80C08C1F810081020088100
:108420000846008940F02000088100F095F801F02E
:108430006DFB10BD7819002002E008C8121F08C1AA
:10844000002AFAD170477047002001E001C1121FD5
:10845000002AFBD1704700002DE9FF4F84461546E6
:10846000DDF80490E046B3F900109A78DFF8C0E038
:108470005EF822604FF0000B6D004FE0BBF1000F83
:1084800002D007F00F0003E018F9017BC7F30310D7
:10849000BBF1000F02D14FF0010E01E04FF0000ED2
:1084A000F346DFF890E05EF820E07244002A00DA3C
:1084B0000022582A00DD582200F0080A00F00700C8
:1084C000F41000F0040EBEF1000F00D0344400F0B0
:1084D000020EBEF1000F01D004EB660400F0010EA5
:1084E000BEF1000F01D004EBA604BAF1000F01D0D9
:1084F000091B00E02144B1F5004F02DB47F6FF7194
:1085000003E011F5004F00DA0B49DFF824E05EF8D4
:1085100022600FFA81FE29F802EB6D1E002DADDC02
:108520000FFA81FEA3F800E09A70BDE8FF8F00000B
:10853000EC210020AC2100200080FFFF10B50020BE
:10854000034908810349088101F002FA10BD0000C7
:108550005C11002078190020F8B51E48007A00F060
:10856000100028B91C48007A00F0100000282FD015
:108570002AE01A4800681A4901EB0035002613E08A
:10858000144800F04DF80746134800F049F8044637
:10859000114B0A333A460F490A312846009400F03D
:1085A000D9FD05F50065761C022EE9DB0B4909684B
:1085B0000B4A02EB013001F08FFA0848006880F0A6
:1085C00001010648016000BF01F05CFA0028D0D12B
:1085D000F8BD00005C11002078190020ECF20020AA
:1085E000ECD2002070B503461D460C46A54209D3C7
:1085F000002004E013F8016B01F8016B401C90426D
:10860000F8D30CE0AE18731EA618711E104604E0D5
:1086100013F8016901F80169401E0028F8D170BD06
:108620002DE9F041ADF5007D04466F460025207A26
:1086300000F0100020B900200DF5007DBDE8F081AC
:10864000D4F80C08B0F5007F16D94FF40072384604
:108650002168FDF7F9FE0546206828442060D4F81B
:108660000C08401BC4F80C08234604F10A022946F2
:10867000384600F03FF951E03846D4F80C2821681C
:10868000FDF7E2FE0546234604F10A022946384674
:1086900000F030F92F440020C4F80C08207A00F0D4
:1086A0002000202836D1002140F616000155B4F8EC
:1086B0001808A4F8140829E060682060D4F81008AD
:1086C000C4F80C08C5F50070D4F80C18884202D222
:1086D000C5F5007001E0D4F80C080646324638466D
:1086E0002168FDF7B1FE0646234604F10A02314631
:1086F000384600F0FFF835443744D4F80C08801BA6
:10870000C4F80C0820683044206000BFB5F5007F35
:10871000D2DB03E0208980F0100020814FEA450879
:10872000404689E770B5FCF719F8044663480068CD
:1087300063490968401A6149086008460068204496
:10874000086008460068142190FBF1F05C4908605D
:1087500008460068B0F5FF6F44DAFCF785FB59A0C6
:10876000FCF7D6F9FEF74CF94FF47A7000F0DAFC1A
:10877000FCF7ACF805462BE0FCF77EF8012806D0A4
:108780002846FCF7A9F8B0F57A7F03D321E0FCF77F
:108790009DF80546FEF734F9FBF7E0FF044647482D
:1087A000006847490968401A44490860084600685B
:1087B0002044086008460068142190FBF1F040490D
:1087C00008600846006840F6F801884200DB00E0D7
:1087D000D2E700BF3A48006840F6F801884201DA63
:1087E00001F0A0FDFCF764F8012832D1344800689C
:1087F00040F6F801884209DB3148006840F636113E
:10880000884203DA01203249087016E02C480068DB
:1088100040F63611884208DB29480068B0F5166F2B
:1088200003DC02202A49087007E025480068B0F5FB
:10883000166F02DD03202649087021480068B0F554
:10884000176F03DB01202349087002E00020214953
:108850000870FCF72DF830BB1948006840F663013A
:10886000884203DA00201A49087026E0144800689C
:1088700040F66301884208DB11480068B0F50A6FD2
:1088800003DC01201249087017E00D480068B0F5BC
:108890000A6F09DD0A48006840F6F801884203DAE9
:1088A00002200B49087008E00548006840F6F8010E
:1088B000884202DB03200649087070BD04000020D6
:1088C000080000206C6F7720766F6C74616765001C
:1088D0000C0000200D00002030B5014600200B46A2
:1088E0000424002203E01D6828441B1D521CA242E0
:1088F000F9DB30BD2DE9F04107460C4615461E4612
:1089000006F61403224629463846FFF7A5FD002047
:10891000BDE8F0812DE9F04107460D4616460024DA
:1089200006E02919384600F009F800B902E0641C95
:10893000B442F6D300BF2046BDE8F081024610697C
:1089400080B1D368581CD0601068C05C0870536850
:10895000D068984201D30020D0601069401E106199
:10896000012070470020FCE7002181600161C160A7
:1089700070470160426070472DE9F04107460D469F
:108980001646002404E0295D384600F005F8641C12
:10899000B442F8D3BDE8F08183685A1C8260026853
:1089A000D154D0E901329A4201D300228260036996
:1089B0004268D21A03D00269521C026101E0826847
:1089C000C260704710B5034890F90000FEF78EFAB8
:1089D00010BD00004B10002010B5034890F90000B6
:1089E000FEF784FA10BD00004C10002010B50348BB
:1089F00090F90000FEF77AFA10BD00004D1000203B
:108A000010B5FEF709FA10BD294890F900000028BA
:108A100003DB274890F9000003E0254890F90000A7
:108A20004042C1B2234890F90000002803DB2148EE
:108A300090F9000003E01F4890F900004042C2B2E4
:108A40001D4890F90000002803DB1B4890F9000046
:108A500003E0194890F900004042C3B28B420ADBA0
:108A6000934208DB144890F90000002801DD012042
:108A700070470220FCE791420ADB994208DB0C4870
:108A800090F90000002801DD0420F1E70320EFE762
:108A90008A420ADB9A4208DB064890F90000002867
:108AA00001DD0620E4E70520E2E70020E0E7000022
:108AB0004B1000204C1000204D1000201FB50E4A16
:108AC0000E490F48FEF720FA0E48FEF741F90E480E
:108AD0000E490F4A084B93F90030CDE90032CDE939
:108AE0000210064890F90030054890F90020032153
:108AF0000520FDF762FD1FBD4A100020491000202F
:108B000048100020501000204D1000204C10002074
:108B10004B1000200A480078032805D10848406817
:108B2000084908600320704705480078022805D1ED
:108B300003484068034908600220F4E70120F2E797
:108B4000501000205810002000487047E8C6002050
:108B500001480078704700006410002010B509201B
:108B600000F08EFD00F0010010BD2DE9F041C0B015
:108B700005460DF1EF064FF0FF08FF277A1C694606
:108B80001001FCF76DFE772416E016F8010C55284D
:108B900010D13078AA280DD12046E11704EB51718D
:108BA000C1F3C708E11704EB5171C910A4EBC1016F
:108BB000CFB203E0B61E641E002CE6DA00BFFF2F22
:108BC0000FD0B8F1FF0F0CD008F101014FF4805223
:108BD00002EB012101EB471010222946FCF740FE71
:108BE00001E00020287040B0BDE8F08170B5134866
:108BF00090F85609114991F85719401AC5B2022D3B
:108C00001ADA0E4890F8560900F0010008B10C4C31
:108C100001E00A4C26340120084981F85809FBF785
:108C200027FC2046FBF7E0FF01210648FBF7D0FFB9
:108C300001210548FBF757FD70BD000074C90020F5
:108C400032CE00200800024000240140F0B5A5B05B
:108C5000012648F20400ADF85E0000201390149045
:108C6000159016903C22874904A8FBF789FA002446
:108C700004E001210DF185000155641C082CF8DB8E
:108C800021A8FDF741F8FBF72FFF7FA2012108463D
:108C9000FEF70DFC7EA214210120FEF708FC7EA247
:108CA00070216020FEF703FC002410E0102004ABCC
:108CB0000090601C33F81000283002B204A830F98C
:108CC000141010234FF47840FCF7FAFEA41C1E2C5D
:108CD000ECDBFEF7E1FDFBF7A3FE2490042024ABC0
:108CE0000246012100902120FEF7BFFBFEF7D4FDD4
:108CF000FBF7ACFE2490042024AB02461421009024
:108D00002120FEF7B2FBFEF7C7FD17A8FDF704F917
:108D10004FF4FA761BE01FA90020FDF733F801F0AD
:108D200005F818A90020FDF78DF8FBF7CFFD281AEC
:108D3000C82804D3FBF7CAFD0546FFF7BFFE01F0C4
:108D4000B5FCFDF75DFE022000F0ECF9761E012E69
:108D5000E1DCFBF7BBFD249089E01FA90020FDF7B3
:108D600011F89DF87F00012805DB01219DF87F00A7
:108D7000401E13AA11549DF87D00012805DB012136
:108D80009DF87D00401D13AA11549DF87E00022815
:108D90000CDB02A90020FDF765F80398012802D139
:108DA00017A8FDF7B9F801208DF85A0018A900207E
:108DB000FDF748F89DF8610010B101208DF85600CC
:108DC00018A8807810B101208DF8570018A8C07835
:108DD00010B101208DF8580018A8007910B10120B9
:108DE0008DF85900002416E013A8005D012811D168
:108DF00010200090012000EB440004AB33F8100079
:108E0000283002B2600033F9101010234FF4FC60D8
:108E1000FCF756FE641C0F2CE6DBFEF73DFD00243C
:108E200004E013A8005D00B902E0641C0F2CF8DB1D
:108E300000BF0F2C00DB1DE0FBF748FD281AC828F7
:108E400004D3FBF743FD0546FFF738FE00F06EFF45
:108E500001F02CFCFDF7D4FDFBF738FD2499081A2E
:108E60000F49884203D30221002001F075FB002E38
:108E70007FF473AF00BFFFF767FE074601F0A6FD62
:108E800025B0F0BDF8A900084D43553A0000000098
:108E90005350493A0000000056332E3000000000C5
:108EA00020BF020008B5AA208DF801006846FCF733
:108EB0003CFF08BDF0B587B004460127207D00F0D7
:108EC000030008B107B0F0BDFBF700FD21690E1AE1
:108ED0002068B04200D9F5E7FBF7F8FC206186E096
:108EE000012206A86168FDF7AFFA6068401C606067
:108EF0009DF81800F738092841D2DFE800F0264035
:108F0000340B404040160500207D40F001002075E4
:108F100000276BE0042205A86168FDF795FA6068F8
:108F2000001D60600598206060E0022204A861686E
:108F3000FDF78AFA6068801C6060BDF81000ADF82B
:108F40000E0003A8FCF7E8FF50E0A07B00F0D7F884
:108F5000C5B26806050E681CC5B22846FBF7B0FD11
:108F6000FEF74EFF42E001A90020FCF77BFF0298CC
:108F7000012803D06068401E6060002736E09DF83D
:108F80001800082831DC9DF8180001282DDBA07B93
:108F900000F0B5F8C5B26806050E681CC5B22846D3
:108FA000FBF78EFD1AE00422211D6846FDF757FAF3
:108FB0009DF90330B4F80CC063441AB29DF9023035
:108FC000B4F80AC0634419B2BDF800002B46FBF7A1
:108FD0009BFB9DF81800401EC0B206909DF818003B
:108FE0000028E0DCFEF70CFF002700BF00BF002FC9
:108FF0007FF476AF00BF65E710B50446002020750A
:1090000021890420FDF73CFA6060002020602046A2
:10901000FFF750FF206808B9F020206010BD000065
:1090200070B506460D46304600F069F80446042C3B
:1090300001DB012070BDC5B9012101EB4401C8B2BB
:10904000FBF73EFD002004EBC40101EB04111E4AB6
:1090500002EB810108664FF6FF7004EBC40101EBDF
:10906000041102EB8101088113E0012D11D10020D0
:1090700004EBC40101EB0411134A02EB8101086601
:109080004FF6FF7004EBC40101EB041102EB810108
:1090900008814FF6FF7104EBC40000EB04100A4A8C
:1090A00002EB8000018404EBC40000EB041002EB2F
:1090B0008000018704EBC40000EB041002EB800089
:1090C000A0F850100020B5E704C70020014600BFFB
:1090D0000A00A1F1010399B2FAD1704710B500F06E
:1090E000CBF900F003FC0446012C01D1FFF7AEFDE3
:1090F00000F090F900F0B4F800F096FA10BD0146C7
:10910000022901D100207047082901D10120FAE786
:10911000202901D10220F6E7802901D10320F2E7BE
:109120000420F0E7044A116800BF034A12688A1A53
:109130008242FAD9704700005011002010B5034850
:109140000349086001F000F9002010BD004000084C
:1091500008ED00E02DE9F84F0E4614461F460A9D23
:10916000AC4202DBA146A84601E0A046A946002188
:1091700029E036F9022B37F9023B002A10DA002BDE
:109180000EDA02FB03FADFF874B09AFBFBFA02EB8B
:10919000030BABEB0A0A0FFA8AFACDF800A00DE038
:1091A00002FB03FA4FEAEA7B0AEB5B4B02EB030E8E
:1091B000AEEBEB3B0FFA8BFBCDF800B0DDF800A077
:1091C00020F802AB491C4145D3DBAC4201DBB4467D
:1091D00000E0BC4604E03CF802AB20F802AB491CBE
:1091E0004945F8DB04E04FF0000A20F802AB491CC7
:1091F000B1F5806FF7DBBDE8F88F00000180FFFF5D
:109200001FB512A103C9CDE9020100200090019011
:10921000052202A9102000F042FA0522694610201A
:1092200000F014FA002405E01DF80400C22800D064
:1092300002E0641C052CF7DB00BF052C02D10020E6
:1092400004B010BD4FF0FF30FAE70000C2C2C2C246
:10925000C200000010B5FF21072000F03AFA10BD4F
:109260000EB54020FBF7ACFF06210220FCF7A0FF63
:109270004020019000208DF808000C208DF8090096
:1092800001208DF80A0001A8FBF7B4FF17208DF824
:10929000000003208DF8010000208DF8020001205D
:1092A0008DF803006846FDF799FE0EBD10B500F07D
:1092B0003DFAE22000F01EFA00F044FA10BD10B5AD
:1092C00000F034FAE12000F015FA00F03BFA10BD8E
:1092D000F8B5054669460A48FBF7D6FF064666B963
:1092E000002408E007489DF8001000EB4110005DE5
:1092F0002855601CC4B2202CF4DB3046F8BD0000B9
:109300004210002008C5002010B500F00FFAFF2021
:1093100000F0F0F9044600F015FA204610BD0000F8
:109320002DE9F04792B00DF12409FBF7E3FB6C4601
:10933000E41C2021204600F0D3F8FFF70FFC50B9C1
:109340000720FBF7BDFB07230022114648F2D1009E
:10935000FBF7DAF902E00720FBF7B2FB26781A48A0
:1093600000EBC60090F80580E77F172E0ADAB8F107
:10937000000F07DD641C144850F836A0494620460B
:10938000D0471AE011480078874213D00F48077081
:1093900011A90F48FBF798FF60B9002508E014F801
:1093A000010B0C499DF8442001EB421148556D1CFE
:1093B000202DF4DB08480068099020214846FEF77C
:1093C00003FD12B0BDE8F08734AA000814000020A5
:1093D0004210002008C500201000002010B5FEF744
:1093E000DBFA08200849086040020849086040206C
:1093F0000749086100F05EF800F0BAF9FFF784FF52
:10940000FFF728FF10BD000014080140100C0140B8
:109410000010014010B508201349086005221349C7
:10942000102000F03CF9052210490A2000F037F91D
:109430000F480178012000F04CF90E480178022015
:1094400000F047F92A21042000F043F928210520E3
:1094500000F03FF92021112000F03BF90F210620F8
:1094600000F037F910BD0000140801405C10002026
:10947000611000206210002010B50F210848FBF792
:1094800037FFFFF7ABFFFFF7BBFE40B105A0FBF7CF
:109490003FFB4FF4FA60FFF745FEFAF761FE10BD9F
:1094A00042100020322E3467206D6F6465206661A3
:1094B000696C000010B50820084908600D210020E3
:1094C00000F007F90220FFF72DFE0F21002000F029
:1094D00000F90520FFF726FE10BD0000140801402A
:1094E00070B505460E4600F021F9612000F002F942
:1094F000002405E0FF2000F0FDF82855601CC4B2F0
:10950000B442F7DB00F01EF970BD00002DE9F04118
:1095100088B080466E46FBF7EDFA20213046FFF713
:10952000DFFFF57F3B480078401CC7B2BD4203D047
:1095300038480078854208D1012000F083FE0220DF
:1095400001F0DAF9002000F07DFEBD4257D131482C
:10955000057031480068401C2F4908602F4800689A
:10956000C0F500641F2C13D32D48006800F00300E1
:109570002A4A126802EBC0202A4A81181F2230466C
:10958000FFF730F8254800681F302449086028E0BC
:109590002348006800F00300204A126802EBC02054
:1095A000204A811822463046FFF71CF800201B494C
:1095B00008601B480068401C194908602644C4F133
:1095C0001F040846006800F00300164A02EBC021A1
:1095D00022463046FFF706F81048006820440F493D
:1095E00008600E480068B0F5006F07D300200B49F3
:1095F00008600B480068401C0949086000BF402013
:10960000FBF7DEFDFFF726FE00F00EF808B0BDE820
:10961000F08100002C00002010000020200000201D
:109620001C0000205023002010B5082006490860C7
:10963000FFF73CFE3F21002000F04BF808200249D4
:10964000091F086010BD0000140801402DE9F04119
:1096500004460E46174600F069F8204600F04AF826
:109660008046002505E0FF2000F044F87055681C96
:10967000C5B2BD42F7DB00F065F84046BDE8F081B9
:1096800070B5044600F052F8204600F033F8FF2091
:1096900000F030F8054600F055F8284670BD2DE979
:1096A000F04105460E46174600F040F845F0200010
:1096B00000F020F88046002404E0305D00F01AF845
:1096C000601CC4B2BC42F8DB00F03CF84046BDE888
:1096D000F08170B504460D4600F028F844F02000F3
:1096E00000F008F80646284600F004F800F02AF8D2
:1096F000304670BD10B5044600BF02210A48FEF78F
:109700001EF90028F9D021460748FEF724F900BFCA
:1097100001210548FEF713F90028F9D00248FEF7A9
:1097200017F9C0B210BD00000038004008200349FE
:1097300008604002024908607047000014080140B8
:10974000140C01404FF4805001490860704700003C
:10975000100C01400146002004E00A5C034B1A543F
:10976000421CD0B20528F8DB704700005C100020D6
:1097700008200149086070471408014070B504468C
:109780000D46082005490860FFF799FDFFF78EFD9B
:109790002946204600F046F870BD0000140801403C
:1097A00010B504460820124908600522211D0B202F
:1097B000FFF775FF20211220FFF78BFF0D4800787F
:1097C00040F002000B4908700B48007840F002009E
:1097D00009490870074801780120FFF77AFF064819
:1097E00001780220FFF775FFFFF71EFF10BD000094
:1097F00014080140611000206210002010B50446DA
:10980000082007490860052221461020FFF747FF7E
:10981000052221460A20FFF742FFFFF705FF10BD92
:109820001408014070B505460E46FFF77FFFA020E3
:10983000FFF760FF002404E0285DFFF75BFF601C7A
:10984000C4B2B442F8DBFFF77DFF70BD10B501462E
:10985000104803684468B3F1FF3F04D1B4F1FF3FFF
:1098600001D1012010BD0B4A12F8010B01F8010BC8
:1098700012F8010B01F8010B12F8010B01F8010BB2
:1098800012F8010B01F8010B024A121D1078087042
:109890000020E7E7E8C600207FB5054601AC287840
:1098A00004F8010B687804F8010BA87804F8010BA0
:1098B000E87820706C46287920700098C0B200903B
:1098C00009490198086000984860084601F07EF850
:1098D00002A8FFF7BBFF02A8FFF73CFF02A8FFF7B3
:1098E0008DFF002004B070BDE8C600207CB513A138
:1098F00003C9CDE900011348056844680026B5F1A5
:10990000FF3F0FD1B4F1FF3F0CD10F480568001D98
:109910000468E4B215B90CB90C4DAA2409480560D5
:10992000446001266846FFF791FF6846FFF712FF83
:109930006846FFF763FF30467CBD000039FFD9055C
:1099400048000000E8C60020E8F7FF1F78563412F0
:1099500030B585B00024002500F078F801210420FE
:10996000FDF7F8FD01214807FDF7D4FD1020ADF803
:10997000100001208DF8120000208DF8130004A9BA
:109980002A48FCF735FC2A48046840F6FE708443F8
:1099900000BF2C4326480460006840F001002449C1
:1099A00008600020224908310860081F006840F064
:1099B0000100091F08601F48FEF788FB01210220F3
:1099C000FDF7A8FD6420ADF804004720ADF80000C5
:1099D0000020ADF80600ADF8020069461548FEF714
:1099E00083FC01211348FEF75FFB1D208DF80C005E
:1099F00000208DF80D008DF80E0001208DF80F006D
:109A000003A8FDF7EBFA012211460A48FEF763FCB2
:109A100000200949086009490860094908600949A6
:109A200008800949086005B030BD00000008014009
:109A30000074004000040040942100209821002080
:109A40009C210020A0210020A421002008B5012194
:109A50000820FDF77FFD4FF48060ADF80000032083
:109A60008DF8020010208DF8030069460448FCF7C9
:109A7000BFFB4FF4806002491031086008BD000050
:109A8000000C01400448006810B10448006808B99F
:109A9000012070470020FCE794210020982100203D
:109AA0004FF48060084908600848008820F00100F1
:109AB000064908800648006840F001000449086033
:109AC0000020044908607047100C01400004004069
:109AD00004740040A421002088B10949096811B923
